:020000040800F2
:10000000004000207D200008110C00081D0C000895
:10001000230C0008290C00082F0C00080000000029
:10002000000000000000000000000000350C000887
:10003000410C0008000000004D0C0008590C00089D
:10004000C5200008C5200008C5200008C5200008FC
:10005000C5200008A50C0008C5200008C520000820
:1000600000000000C5200008C52000081D0B000886
:10007000C5200008C5200008C520000800000000B9
:10008000C5200008ED0A000800000000C520000897
:10009000C5200008C5200008690B0008C52000081D
:1000A000C5200008C5200008C5200008C52000089C
:1000B000410B0008000000000000000000000000EC
:0C00C000C520000800000000C52000085A
:1000D00010B5054C237833B9044B13B10448AFF382
:1000E00000800123237010BD0800002000000000E4
:1000F0000430000808B5034B1BB103490348AFF3B4
:10010000008008BD000000000C0000200430000842
:1001100070B54FF0FF0C4CF4E06C1CEA11541DBF9D
:100120001CEA135594EA0C0F95EA0C0F00F0DEF868
:100130002C4481EA030621EA4C5123EA4C5350EA4D
:10014000013518BF52EA033541F4801143F480139E
:1001500038D0A0FB02CE4FF00005E1FB02E506F02F
:100160000042E0FB03E54FF00006E1FB03569CF084
:10017000000F18BF4EF0010EA4F1FF04B6F5007F8A
:1001800064F5407404D25FEA4E0E6D4146EB0606FC
:1001900042EAC62141EA55514FEAC52040EA5E5085
:1001A0004FEACE2EB4F1FD0C88BFBCF5E06F1ED82F
:1001B000BEF1004F08BF5FEA500E50F1000041EB66
:1001C000045170BD06F0004646EA010140EA020013
:1001D00081EA0301B4EB5C04C2BFD4EB0C0541EA35
:1001E000045170BD41F480114FF0000E013C00F34A
:1001F000AB8014F1360FDEBF002001F0004170BD6E
:10020000C4F10004203C35DA0C341BDC04F1140486
:10021000C4F1200500FA05F320FA04F001FA05F212
:1002200040EA020001F0004221F0004110EBD370DF
:1002300021FA04F642EB06015EEA430E08BF20EA0B
:10024000D37070BDC4F10C04C4F1200500FA04F3AE
:1002500020FA05F001FA04F240EA020001F0004140
:1002600010EBD37041F100015EEA430E08BF20EAB3
:10027000D37070BDC4F1200500FA05F24EEA020EFB
:1002800020FA04F301FA05F243EA020321FA04F02A
:1002900001F0004121FA04F220EA020000EBD370E1
:1002A0005EEA430E08BF20EAD37070BD94F0000FE1
:1002B0000FD101F00046400041EB010111F4801F15
:1002C00008BF013CF7D041EA060195F0000F18BFC6
:1002D000704703F00046520043EB030313F4801F02
:1002E00008BF013DF7D043EA0603704794EA0C0FBC
:1002F0000CEA135518BF95EA0C0F0CD050EA4106D2
:1003000018BF52EA4306D1D181EA030101F000414E
:100310004FF0000070BD50EA410606BF1046194676
:1003200052EA430619D094EA0C0F02D150EA013682
:1003300013D195EA0C0F05D152EA03361CBF1046C3
:1003400019460AD181EA030101F0004141F0FE4162
:1003500041F470014FF0000070BD41F0FE4141F4E6
:10036000780170BD81F0004102E000BF83F00043DE
:1003700030B54FEA41044FEA430594EA050F08BF40
:1003800090EA020F1FBF54EA000C55EA020C7FEA04
:10039000645C7FEA655C00F0E2804FEA5454D4EB81
:1003A0005555B8BF6D420CDD2C4480EA020281EA4B
:1003B000030382EA000083EA010180EA020281EA83
:1003C0000303362D88BF30BD11F0004F4FEA0131D5
:1003D0004FF4801C4CEA113102D0404261EB4101E4
:1003E00013F0004F4FEA03334CEA133302D052426A
:1003F00063EB430394EA050F00F0A780A4F1010426
:10040000D5F1200E0DDB02FA0EFC22FA05F280185F
:1004100041F1000103FA0EF2801843FA05F3594145
:100420000EE0A5F120050EF1200E012A03FA0EFCC4
:1004300028BF4CF0020C43FA05F3C01851EBE371EE
:1004400001F0004507D54FF0000EDCF1000C7EEB0B
:1004500000006EEB0101B1F5801F1BD3B1F5001F49
:100460000CD349085FEA30004FEA3C0C04F1010468
:100470004FEA445212F5800F80F09A80BCF1004F91
:1004800008BF5FEA500C50F1000041EB045141EA13
:10049000050130BD5FEA4C0C404141EB0101013CDC
:1004A00028BFB1F5801FE9D291F0000F04BF0146CB
:1004B0000020B1FA81F308BF2033A3F10B03B3F19D
:1004C00020020CDA0C3208DD02F1140CC2F10C022D
:1004D00001FA0CF021FA02F10CE002F11402D8BF8B
:1004E000C2F1200C01FA02F120FA0CFCDCBF41EA57
:1004F0000C019040E41AA2BF01EB0451294330BD26
:100500006FEA04041F3C1CDA0C340EDC04F1140402
:10051000C4F1200220FA04F001FA02F340EA0300D9
:1005200021FA04F345EA030130BDC4F10C04C4F11F
:10053000200220FA02F001FA04F340EA03002946FF
:1005400030BD21FA04F0294630BD94F0000F83F449
:10055000801306BF81F480110134013D4EE77FEA2C
:10056000645C18BF7FEA655C29D094EA050F08BF78
:1005700090EA020F05D054EA000C04BF1946104659
:1005800030BD91EA030F1EBF0021002030BD5FEA9D
:10059000545C05D14000494128BF41F0004130BDC5
:1005A00014F580043CBF01F5801130BD01F0004519
:1005B00045F0FE4141F470014FF0000030BD7FEA8C
:1005C000645C1ABF194610467FEA655C1CBF0B4687
:1005D000024650EA013406BF52EA033591EA030F9E
:1005E00041F4002130BD00BF90F0000F04BF002196
:1005F000704730B54FF4806404F132044FF00005C9
:100600004FF0000150E700BF90F0000F04BF002141
:10061000704730B54FF4806404F1320410F00045A7
:1006200048BF40424FF000013EE700BF42004FEAA2
:10063000E2014FEA31014FEA02701FBF12F07F431F
:1006400093F07F4F81F06051704732F07F4208BFD6
:10065000704793F07F4F04BF41F40021704730B5DD
:100660004FF4607401F0004521F000411CE700BF29
:1006700050EA010208BF704730B54FF000050AE0AC
:1006800050EA010208BF704730B511F0004502D5AD
:10069000404261EB41014FF4806404F132045FEAAF
:1006A000915C3FF4D8AE4FF003025FEADC0C18BF58
:1006B00003325FEADC0C18BF033202EBDC02C2F14A
:1006C000200300FA03FC20FA02F001FA03FE40EADC
:1006D0000E0021FA02F11444BDE600BF53B94AB935
:1006E000002908BF00281CBF4FF0FF314FF0FF303A
:1006F00000F074B9ADF1080C6DE904CE00F006F815
:10070000DDF804E0DDE9022304B070472DE9F0478D
:10071000089E0D4604468846002B4DD18A429446D9
:1007200068D9B2FA82F252B101FA02F3C2F12001A1
:1007300020FA01F10CFA02FC41EA030894404FEA66
:100740001C45210CB8FBF5FE1FFA8CF705FB1E8338
:1007500041EA03430EFB07F199420BD91CEB03035B
:100760000EF1FF3080F01E81994240F21B81AEF104
:10077000020E63445B1AA4B2B3FBF5F005FB103321
:1007800044EA034400FB07F7A7420AD91CEB040420
:1007900000F1FF3380F00881A74240F205816444F4
:1007A0000238E41B40EA0E4000211EB1D440002371
:1007B000C6E90043BDE8F0878B4208D9002E00F05F
:1007C000EE800021C6E900050846BDE8F087B3FACF
:1007D00083F100294AD1AB4202D3824200F2F98070
:1007E000841A65EB030301209846002EE2D0C6E987
:1007F0000048DFE702B9FFDEB2FA82F2002A40F0D9
:100800009180A1EB0C054FEA1C471FFA8CFE0121D9
:10081000B5FBF7F307FB1350250C45EA00450EFB2B
:1008200003F0A84208D91CEB050503F1FF3802D2FA
:10083000A84200F2CB8043462D1AA4B2B5FBF7F0D4
:1008400007FB105544EA05440EFB00FEA64508D9F7
:100850001CEB040400F1FF3502D2A64500F2BB8078
:100860002846A4EB0E0440EA03409EE7C1F12007AE
:100870008B4022FA07FC4CEA030C20FA07F405FA35
:1008800001F31C43FD404FEA1C4900FA01F3B5FB9C
:10089000F9F8200C1FFA8CFE09FB185540EA0545B3
:1008A00008FB0EF0A84202FA01F20BD91CEB050579
:1008B00008F1FF3A80F08880A84240F28580A8F1D4
:1008C000020865442D1AA4B2B5FBF9F009FB1055D6
:1008D00044EA054500FB0EFEAE4508D91CEB0505B4
:1008E00000F1FF346CD2AE456AD90238654440EA63
:1008F0000840A0FB0294A5EB0E05A542C846A646FB
:1009000056D353D05EB1B3EB080265EB0E0505FA82
:1009100007F722FA01F3CD401F43C6E90075002115
:10092000BDE8F087C2F1200320FA03F10CFA02FCC3
:1009300025FA03F395400D434FEA1C471FFA8CFE3E
:10094000B3FBF7F107FB11302B0C43EA004301FB2B
:100950000EF0984204FA02F408D91CEB030301F1EB
:10096000FF382FD298422DD9023963441B1AADB2F9
:10097000B3FBF7F007FB103345EA034500FB0EF32A
:10098000AB4208D91CEB050500F1FF3816D2AB428B
:1009900014D902386544ED1A40EA014138E731467E
:1009A000304607E78646E5E61846FAE64B45A9D203
:1009B000B9EB020864EB0C0E0138A3E74046EAE706
:1009C000204694E74146D1E7D0467BE7023B6544A9
:1009D00032E7084609E76444023842E7704700BF3F
:1009E00080B584B000AF3B46184601F09FFD07F18B
:1009F00008033A461068186012791A713B7ADBB224
:100A0000002B0ED0012B00D00CE03B7BDBB201337E
:100A1000DBB23B7307F1080393E8030001F034FDF8
:100A200000E000BF00BF1037BD4680BD80B582B07A
:100A300000AF114B1B6801330F4A13600E4B1B684C
:100A4000B3F5FA6F11D90C4B00221A60CC233B701E
:100A500003237B700223BB700123FB7000233B71D7
:100A60003B4693E8030001F00FFDFFF7B9FF00BF1D
:100A70000837BD4680BD00BF2400002080B582B08D
:100A800000AF01F0C7FF01F0E5FF03461A463A71D7
:100A9000C3F307227A71C3F30743BB713B7903F0B9
:100AA0000103DBB2002B17D07B79DBB2002B15D111
:100AB000BB79DBB25C2B13D10B4B1B78012B05D11F
:100AC000094B00221A7001F057FE0AE0064B012282
:100AD0001A7001F05BFE04E000BF02E000BF00E01E
:100AE00000BF0837BD4680BD2800002080B500AF9C
:100AF0000121084801F07CF90346002B08D0064A82
:100B0000137843F0010313700121024801F088F9C2
:100B100000BF80BD001000402C00002080B500AF59
:100B20004FF4005000F00AFD0346002B05D04FF4AF
:100B3000005000F021FD01F061FD00BF80BD00000C
:100B400080B500AF1021074801F06DFA0346002B75
:100B500005D01021034801F079FA01F061FD00BFD2
:100B600080BD00BF0044004080B500AF02210748AF
:100B700001F03EF90346002B05D00221034801F0A5
:100B80004FF901F069FE00BF80BD00BF0048014081
:100B900080B500AF1D4B40F253121A6000F0EEF822
:100BA0000121012000F0AEF900BF00F048F9034632
:100BB000002BFAD00D21012000F038FA012102208B
:100BC00000F0A0F900BF192000F012F90346012B34
:100BD000F9D1002000F0E8F9002000F011FA00201F
:100BE00000F0F8F9012000F029FC022000F0CCFA16
:100BF00000BF00F0DFFA0346022BFAD1002000F01C
:100C00001DFC01F0A1FA00BF80BD00BF0020024022
:100C100080B400AF00BFBD4680BC704780B400AF59
:100C2000FEE780B400AFFEE780B400AFFEE780B41B
:100C300000AFFEE780B400AF00BFBD4680BC704788
:100C400080B400AF00BFBD4680BC704780B400AF29
:100C500000BFBD4680BC704780B400AF00BFBD463A
:100C600080BC704780B500AF052001F09FFF0120D8
:100C700000F018FD01214FF0904000F0B3FD034655
:100C8000012B0AD1064B1B78042B03D1044B012204
:100C90001A7002E0024B04221A7000BF80BD00BF30
:100CA0000000002080B500AFFFF7DCFF00BF80BD73
:100CB00080B58AB000AFFFF76BFF01F0C3FF0023E0
:100CC00087F823300023FB610523BB610423BB614C
:100CD00000237B6200237B614FF000024FF0000392
:100CE000C7E9022302F00CF8786201F0D1FC7862C7
:100CF0000A2001F0F7FC01F0CBFC78617A697B6A8D
:100D0000D31A1846FFF770FC19A3D3E90023FFF7A5
:100D1000FFF902460B46C7E902234FF000024FF0ED
:100D20000003C7E9022300237B6200237B6100BF2D
:100D3000114B1B78C3F30003DBB2002BF8D00E4A33
:100D400013786FF30003137001F002FD7B6A013327
:100D50007B6201F025FD0346012B02D101F0F8FC76
:100D600001E001F0FFFCFFF761FEFFF787FEDEE721
:100D7000111111111111813F2C00002080B400AF1E
:100D80001A4A136843F00103136000BF174B1B6836
:100D9000C3F34003DBB2012BF8D1144A53686FF35D
:100DA0000103536000BF114B5B68C3F38103DBB2E7
:100DB000002BF8D10D4B1B680C4A23F0867323F4EB
:100DC00080331360094B00225A60084B41F61072C1
:100DD000DA62064B4FF480121A63044B4FF41F0281
:100DE0009A6000BFBD4680BC704700BF0010024043
:100DF00080B485B000AF78600023FB737B681B0C68
:100E000003F1804303F504331A687B6803F01F0382
:100E1000012101FA03F31A407B6803F01F0301214B
:100E200001FA03F39A4202D00023FB7301E001238D
:100E3000FB73FB7B18461437BD4680BC704780B5FA
:100E400082B000AF00237B600023FB7002E07B6870
:100E500001337B601120FFF7CBFF0346012B03D04A
:100E60007B68B3F5405FF2D31120FFF7C1FF034663
:100E7000012B02D00023FB7001E00123FB70FB7803
:100E800018460837BD4680BD80B483B000AF786097
:100E90000B46FB70FB78012B16D17B681B0C03F112
:100EA000804303F5043319687B6803F01F030122B4
:100EB0009A407B681B0C03F1804303F5043318460A
:100EC00041EA0203036017E07B681B0C03F18043D7
:100ED00003F5043319687B6803F01F03012202FA4B
:100EE00003F3DA437B681B0C03F1804303F50433FF
:100EF000184601EA0203036000BF0C37BD4680BC00
:100F00007047000080B483B000AF03460A46FB710F
:100F10001346BB71FB79042B3ED801A252F823F093
:100F2000350F0008490F00085D0F0008710F000819
:100F3000850F00081B4ABB7903F00103D9B213687F
:100F400061F30003136028E0164ABB7903F0010344
:100F5000D9B2136861F3104313601EE0114ABB79E4
:100F600003F00103D9B2136861F31863136014E04E
:100F70000C4ABB7903F00103D9B2136A61F3000391
:100F800013620AE0074ABB7903F00103D9B2536A3E
:100F900061F30003536200E000BF00BF0C37BD46A1
:100FA00080BC70470010024080B483B000AF03469D
:100FB000FB71074AFB7903F00F03D9B2536861F361
:100FC0000713536000BF0C37BD4680BC704700BF9D
:100FD0000010024080B483B000AF0346FB71074AA3
:100FE000FB7903F00703D9B2536861F30A23536016
:100FF00000BF0C37BD4680BC704700BF00100240E8
:1010000080B483B000AF0346FB71074AFB7903F05D
:101010000703D9B2536861F3CD23536000BF0C3787
:10102000BD4680BC704700BF0010024080B485B050
:1010300000AF03460A46FB711346BB710023FB60F9
:101040000023FB72FB79002B07D1404A53686FF3F2
:10105000104353603E4BFB6016E03C4A536843F438
:1010600080335360FB79012B07D13A4BFB60374A41
:1010700053686FF35143536006E0354BFB60334ACE
:10108000536843F400335360FB68334A934206D9F4
:10109000FB68324A934202D80023FB7235E0FB68BA
:1010A0002F4A934206D9FB682E4A934202D8012365
:1010B000FB722AE0FB682C4A934206D9FB682B4A54
:1010C000934202D80223FB721FE0FB68284A934236
:1010D00006D9FB68274A934202D80323FB7214E027
:1010E000FB68254A934206D9FB68244A934202D8FA
:1010F0000423FB7209E0FB68214A934205D9FB688F
:10110000204A934201D80523FB72104ABB7903F0B1
:101110000F03D9B2536861F395435360BB791B1138
:101120000A4A03F00303D9B2536861F35E73536054
:10113000064AFB7A03F00703D9B2D36A61F31A6354
:10114000D36200BF1437BD4680BC70470010024018
:1011500000093D0000127A0060823B003F4B4C00CA
:1011600080584F000F5E5F00943577000F1B7F00A3
:10117000101B7F001FBCBE00286BEE002FD73D0167
:1011800030D73D01D7E9DC0180B483B000AF03461E
:10119000FB71074AFB7903F00303D9B2536861F38B
:1011A0000103536000BF0C37BD4680BC704700BFD1
:1011B0000010024080B400AF044B5B68C3F38103AE
:1011C000DBB21846BD4680BC704700BF001002402D
:1011D0002DE9B04F8EB000AFF86000237B63002391
:1011E000FB620023BB6200237B6200233B6200237F
:1011F0003B630023FB610023BB6100237B61FFF79E
:10120000D9FF0346FB74FB7C022B21D0022B00F399
:10121000AE80002B02D0012B16D0A8E07F4B5B6D77
:10122000C3F34023DBB2002B0AD07C4B1B6BC3F310
:101230004063DBB2002B03D0FB68794A1A609AE066
:10124000FB68784A1A6096E0FB68764A1A6092E07A
:10125000724B5B68C3F30043DBB2BB626F4BDB6A6C
:10126000C3F3C073DBB2002B3AD16C4B5B68C3F3A2
:101270008343DBB27B63694B5B68C3F34173DBB2CF
:10128000FB62FB6A002B02D17B6B0F2B06D1FB6A42
:101290001A017B6B134401337B6302E07B6B0233E7
:1012A0007B63BB6A002B06D17B6B5F4A03FB02F2B8
:1012B000FB681A605FE0594B5B68C3F34043DBB2E5
:1012C000002B06D07B6B584A03FB02F2FB681A60C6
:1012D00051E07B6B534A03FB02F2FB681A604AE061
:1012E0004E4BDB6AC3F30313DBB2FB614B4BDB6A90
:1012F000C3F308239BB2BB61484BDB6AC3F3020311
:10130000DBB27B61BB6A002B02D1474B3B630BE036
:10131000424B5B68C3F34043DBB2002B02D0424B2D
:101320003B6301E03F4B3B633B6B00229A46934695
:10133000BB6900229846914608FB0BF20AFB09F3B1
:101340001344AAFB08452B441D46FA697B6902FA3F
:1013500003F300223B607A60D7E900232046294648
:10136000FFF7BCF902460B46FB681A6003E0FB6816
:101370002C4A1A6000BF294B5B68C3F30313DBB22E
:101380007B622A4A7B6A13441B783B62FB681A68BB
:101390003B6ADA40FB685A60204B5B68C3F3022368
:1013A000DBB27B62224A7B6A13441B783B62FB6898
:1013B0005A683B6ADA40FB68DA60184B5B68C3F333
:1013C000C223DBB27B621B4A7B6A13441B783B62FD
:1013D000FB685A683B6ADA40FB689A600F4B5B68AF
:1013E000C3F30073DBB27B627B6A9B000B4A5268DB
:1013F000C2F38132D2B213437B620F4A7B6A134439
:101400001B783B62FB689A683B6AB2FBF3F2FB68AD
:101410001A6100BF3837BD46BDE8B08F00100240EA
:10142000006CDC0200127A0000093D001C3000084C
:101430002C300008343000083C30000880B483B001
:1014400000AF0346FB71FB79012B05D1074A536DB1
:1014500043F03003536504E0044A536D6FF3051302
:10146000536500BF0C37BD4680BC7047001002407A
:1014700080B485B000AF78600023FB607A681368A1
:101480006FF3000313607B6800221A607B68002200
:101490005A607B6800229A607B680022DA607B6871
:1014A000FB600B4B5B68FA68D2B2083A0949A1FBB2
:1014B0000212120992000F2101FA02F21146044AA7
:1014C0000B43536000BF1437BD4680BC704700BF5C
:1014D00000000240CDCCCCCC80B485B000AFF86029
:1014E000B9601346FB71FB79002B06D0FB681A68C4
:1014F000BB681A43FB681A6006E0FB681A68BB68A1
:10150000DB431A40FB681A6000BF1437BD4680BC3D
:10151000704780B483B000AF78600B46FB70FB78F7
:1015200003F00103D9B27A68136861F30003136012
:1015300000BF0C37BD4680BC7047000080B485B04A
:1015400000AF78600023FB730023BB60094B1B686E
:10155000BB60BA687B681340002B02D00123FB7389
:1015600001E00023FB73FB7B18461437BD4680BCAB
:10157000704700BF0000024080B483B000AF7860C5
:10158000034A7B68536000BF0C37BD4680BC704780
:101590000000024080B483B000AF78607B68002216
:1015A0001A607B6800225A607B6800221A817B687F
:1015B00000225A817B6800221A737B6800225A73CA
:1015C0007B6800229A737B680022DA737B680022B2
:1015D0001A747B6800225A7400BF0C37BD4680BC69
:1015E000704780B483B000AF786039607B681A6858
:1015F0004BF6EF7313407A6813607B681B683A6898
:1016000012891A437B681A603B685B7C03F0030312
:10161000D9B27A68136861F30D3313603B68DB7BE2
:1016200003F00303D9B27A68136861F38B23136064
:101630003B689B7B03F00303D9B27A68136861F3BC
:10164000092313603B685B7B03F00103D9B27A681E
:10165000136861F3C71313603B681B7B03F001033E
:10166000D9B27A68136861F3861313603B681B7CF8
:1016700003F00103D9B27A68136861F3451313606C
:101680003B685B891A467B685A603B681A687B68CE
:101690009A603B685A687B68DA6000BF0C37BD46C9
:1016A00080BC704780B483B000AF7860034A7B6829
:1016B000536100BF0C37BD4680BC70470004014039
:1016C00080B485B000AF786039600023BB813B688F
:1016D0001B68FB8164E0FB8903F00103002B59D0F8
:1016E0007B681B68BA895200032101FA02F2D243D7
:1016F0001A407B681A607B681B683A6892791146C9
:10170000BA89520001FA02F21A437B681A607B68B8
:101710005B68BA89012101FA02F2D2431A407B6860
:101720005A607B685B683A6812791146BA8901FA97
:1017300002F21A437B685A607B689B68BA89520040
:10174000032101FA02F2D2431A407B689A607B6857
:101750009B683A68D2791146BA89520001FA02F2BE
:101760001A437B689A607B68DB68BA895200032160
:1017700001FA02F2D2431A407B68DA607B68DB68C8
:101780003A6852791146BA89520001FA02F21A43B4
:101790007B68DA60FB895B08FB81BB890133BB8115
:1017A000FB89002B97D100BF00BF1437BD4680BC1A
:1017B000704780B483B000AF78607B684FF6FF72EB
:1017C0001A607B6800229A717B6800221A717B681C
:1017D00000225A717B680122DA7100BF0C37BD46C6
:1017E00080BC704780B485B000AF78600B467B80CA
:1017F0000023FB737A8879887B681B690B409A42C7
:1018000002D00023FB7301E00123FB73FB7B18462E
:101810001437BD4680BC704780B483B000AF786099
:101820000B467B807A887B689A6100BF0C37BD4687
:1018300080BC704780B483B000AF78600B467B807B
:101840007A887B689A6200BF0C37BD4680BC7047BF
:1018500080B485B000AF78600B46FB701346BB7058
:101860000023FB600023BB60BA78FB7803F007031A
:101870009B0002FA03F3FB60FB78DB08DBB2002B72
:1018800015D07B685A6AFB7803F007039B000F2191
:1018900001FA03F3DB431A407B685A627B685B6A98
:1018A000FA681343BB607B68BA685A6214E07B68CD
:1018B0001A6AFB7803F007039B000F2101FA03F378
:1018C000DB431A407B681A627B681B6AFA68134321
:1018D000BB607B68BA681A6200BF1437BD4680BC23
:1018E0007047000080B485B000AF78607B6803F07B
:1018F0000703FB600C4BDB68BB60BA684FF6FF0365
:101900001340BB60FB681A02BB68134343F0BF631C
:1019100043F40033BB60044ABB68D36000BF143794
:10192000BD4680BC704700BF00ED00E080B400AF52
:10193000044BDB681B0A03F007031846BD4680BC56
:10194000704700BF00ED00E080B483B000AF0346F5
:10195000FB7197F90730002B0BDBFB7903F01F02BB
:10196000064997F907305B09012000FA02F241F8B5
:10197000232000BF0C37BD4680BC704700E100E06B
:1019800080B483B000AF03463960FB7197F907302C
:10199000002B0ADB3B68DAB20C4997F907301201D9
:1019A000D2B20B4483F800230AE03B68DAB208495C
:1019B000FB7903F00F03043B1201D2B20B441A76F9
:1019C00000BF0C37BD4680BC704700BF00E100E09F
:1019D00000ED00E080B489B000AFF860B9607A60D3
:1019E000FB6803F00703FB61FB69C3F10703042BEA
:1019F00028BF0423BB61FB690433062B02D9FB69B2
:101A0000033B00E000237B614FF0FF32BB6902FA29
:101A100003F3DA43BB681A407B699A404FF0FF3109
:101A20007B6901FA03F3D9437B680B4013431846E3
:101A30002437BD4680BC704780B586B000AF0346F2
:101A4000B9607A60FB7300237B61FFF76FFF034689
:101A50007A68B9681846FFF7BDFF786197F90F30CB
:101A600079691846FFF78CFF97F90F301846FFF792
:101A70006BFF00BF1837BD4680BD80B582B000AF98
:101A80000346FB71FB791846FFF72CFF00BF0837B0
:101A9000BD4680BD80B483B000AF0346FB71FB79C7
:101AA000042B06D1084B1B68074A43F0040313605C
:101AB00005E0054B1B68044A23F00403136000BFD4
:101AC0000C37BD4680BC704710E000E080B483B0A6
:101AD00000AF78600B46FB70FB7803F00103D9B2CE
:101AE0007A68136861F30003136000BF0C37BD46CA
:101AF00080BC704780B485B000AFF860B9607A6090
:101B0000FB68BA68DA62FB687A689A62FA685369B5
:101B100043F00103536100BF1437BD4680BC7047DA
:101B200080B485B000AF78600B46FB700023FB608B
:101B3000FB787B817B89062B20D801A252F823F009
:101B40005D1B00087D1B0008651B00087D1B00084D
:101B50006D1B00087D1B0008751B00087B685B6B14
:101B6000FB600CE07B689B6BFB6008E07B68DB6BD9
:101B7000FB6004E07B681B6CFB6000E000BFFB685F
:101B800018461437BD4680BC704700BF80B487B08C
:101B900000AFF860B9601346FB710023FB82BB689D
:101BA0001B78FB82FB8A062B00F2FB8001A252F815
:101BB00023F000BFD11B0008A31D00084B1C000828
:101BC000A31D0008C51C0008A31D00083F1D000838
:101BD000FA68136A6FF300031362BB685B7803F063
:101BE0000103D9B2FA68136A61F341031362BB6857
:101BF0005B785B1003F00103D9B2FA68136A61F3F2
:101C0000C3031362BB689B7803F00303D9B2FA687D
:101C1000936961F301039361BB68DB7803F00F0301
:101C2000D9B2FA68936961F307139361FB7903F002
:101C30000303D9B2FA68936961F383039361FA6885
:101C4000136A43F001031362ACE0FA68136A6FF39E
:101C500004131362BB685B7803F00103D9B2FA681E
:101C6000136A61F345131362BB685B785B1003F082
:101C70000103D9B2FA68136A61F3C7131362BB6830
:101C80009B7803F00303D9B2FA68936961F30923DF
:101C90009361BB68DB7803F00F03D9B2FA689369EC
:101CA00061F30F339361FB7903F00303D9B2FA6850
:101CB000936961F38B239361FA68136A43F010030D
:101CC00013626FE0FA68136A6FF308231362BB684C
:101CD0005B7803F00103D9B2FA68136A61F3492310
:101CE0001362BB685B785B1003F00103D9B2FA683A
:101CF000136A61F3CB231362BB689B7803F0030381
:101D0000D9B2FA68D36961F30103D361BB68DB78A8
:101D100003F00F03D9B2FA68D36961F30713D361F3
:101D2000FB7903F00303D9B2FA68D36961F3830343
:101D3000D361FA68136A43F48073136232E0FA687D
:101D4000136A6FF30C331362BB685B7803F0010313
:101D5000D9B2FA68136A61F34D331362BB689B789A
:101D600003F00303D9B2FA68D36961F30923D3619D
:101D7000BB68DB7803F00F03D9B2FA68D36961F36B
:101D80000F33D361FB7903F00303D9B2FA68D36947
:101D900061F38B23D361FA68136A43F480531362AF
:101DA00000E000BF00BF1C37BD4680BC704700BFCD
:101DB00080B485B000AFF860B9601346FB71FB7961
:101DC000012B06D1FB68DA68BB681A43FB68DA604E
:101DD00009E0FB79002B06D1FB68DA68BB68DB43BE
:101DE0001A40FB68DA6000BF1437BD4680BC7047FC
:101DF00080B485B000AF786039600023FB737B68E6
:101E00001A693B681340002B02D00123FB7301E0E9
:101E10000023FB73FB7B18461437BD4680BC70471C
:101E200080B483B000AF786039603B68DA437B6888
:101E30001A6100BF0C37BD4680BC704780B58CB0BE
:101E400000AFF860B96011461A460B46FB711346A5
:101E5000BB7107F114031846FFF7BAF9FB68244A6F
:101E6000934202D1FB69FB6201E03B6AFB62FA6AC2
:101E700013469B0013445B001A46BB68B2FBF3F3A6
:101E8000BB62B96A1B4BA3FB0123DA0813469B0014
:101E900013445B00CA1A042A06D8BB6A154AA2FB7F
:101EA0000323DB08BB6206E0BB6A124AA2FB0323E2
:101EB000DB080133BB62BB6A99B2FA68936861F3CD
:101EC0000F039360FB7903F00103D9B2FA68D3687A
:101ED00061F30C33D360BB7903F00303D9B2FA6822
:101EE000136961F30D33136100BF3037BD4680BD08
:101EF00000380140CDCCCCCC80B483B000AF78604A
:101F00000B46FB70FB7803F00103D9B27A68D36803
:101F100061F34D33D36000BF0C37BD4680BC7047C2
:101F200080B483B000AF78600B46FB70FB7803F0A1
:101F30000103D9B27A68D36861F3C303D36000BFE9
:101F40000C37BD4680BC704780B483B000AF78606A
:101F50000B46FB70FB7803F00103D9B27A68D368B3
:101F600061F38203D36000BF0C37BD4680BC70476D
:101F700080B485B000AFF860B9601346FB71FB799F
:101F8000012B11D1BB681A0CFB6813441A68BB689B
:101F900003F01F03012101FA03F3B968080CF96883
:101FA000014413430B6011E0BB681A0CFB68134437
:101FB0001A68BB6803F01F03012101FA03F3DB4336
:101FC000B968080CF968014413400B6000BF14376E
:101FD000BD4680BC704780B483B000AF78600B46CC
:101FE000FB70FB7803F00103D9B27A68536961F39F
:101FF000C713536100BF0C37BD4680BC704780B427
:1020000083B000AF78600B46FB70FB7803F00103F0
:10201000D9B27A68536961F38613536100BF0C37F4
:10202000BD4680BC704780B483B000AF7860396033
:102030007B681A683B681340002B01D0012300E045
:10204000002318460C37BD4680BC704780B483B06F
:1020500000AF786039603B6803F01F03002B04D0A9
:102060007B681B687B685B6803E03B68DA437B68DE
:102070001A6000BF0C37BD4680BC7047002103E0EA
:102080000B4B5B58435004310A480B4B42189A42A1
:10209000F6D30A4A02E0002342F8043B084B9A4276
:1020A000F9D300F011F800F089FFFEF701FE704748
:1020B0006430000800000020080000200800002014
:1020C00068000020FEE7000080B400AF1C4A1368DF
:1020D00043F00103136000BF194B1B68C3F34003B7
:1020E000DBB2012BF8D1164A53686FF3010353603A
:1020F00000BF134B5B68C3F38103DBB2002BF8D145
:102100000F4B1B680E4A23F0867323F48033136051
:102110000B4B00225A600A4B41F61072DA62084BF0
:102120004FF480121A63064B4FF41F029A60054B5E
:102130004FF000629A6000BFBD4680BC704700BF90
:102140000010024000ED00E02DE9B04F8CB000AF70
:102150000023FB6200237B6200233B620023FB61C0
:102160000023BB610023BB6200237B6100233B6132
:102170000023FB60FFF71EF80346FB72FB7A022B7D
:1021800021D0022B00F3AE80002B02D0012B16D001
:10219000A8E0624B5B6DC3F34023DBB2002B0AD097
:1021A0005E4B1B6BC3F34063DBB2002B03D05C4B75
:1021B0005C4A1A609AE05A4B5B4A1A6096E0584BA8
:1021C000594A1A6092E0554B5B68C3F30043DBB297
:1021D0003B62524BDB6AC3F3C073DBB2002B3AD1D4
:1021E0004E4B5B68C3F38343DBB2FB624B4B5B68D4
:1021F000C3F34173DBB27B627B6A002B02D1FB6AC3
:102200000F2B06D17B6A1A01FB6A13440133FB6270
:1022100002E0FB6A0233FB623B6A002B06D1FB6AD9
:10222000424A02FB03F33E4A13605FE03B4B5B68AC
:10223000C3F34043DBB2002B06D0FB6A3B4A02FBF0
:1022400003F3374A136051E0FB6A374A02FB03F39A
:10225000334A13604AE0314BDB6AC3F30313DBB24A
:102260007B612E4BDB6AC3F308239BB23B612B4B94
:10227000DB6AC3F30203DBB2FB603B6A002B02D1D3
:102280002A4BBB620BE0254B5B68C3F34043DBB2D8
:10229000002B02D0254BBB6201E0234BBB62BB6A23
:1022A00000229A4693463B6900229846914608FBD5
:1022B0000BF20AFB09F31344AAFB08452B441D4605
:1022C0007A69FB6802FA03F300223B607A60D7E97F
:1022D000002320462946FEF701FA02460B46104B22
:1022E0001A6003E00E4B104A1A6000BF0B4B5B688C
:1022F000C3F30313DBB2FB610D4AFB6913441B7884
:10230000BB61074B1A68BB6922FA03F3044A1360E6
:1023100000BF3037BD46BDE8B08F00BF001002409F
:1023200004000020006CDC0200127A0000093D006D
:102330004430000880B582B000AF7860786800F063
:1023400009F800F037F800F06DF800BF0837BD4617
:1023500080BD000080B582B000AF7860002300220D
:1023600079681248FFF76AFD01211048FFF7D8FD90
:1023700001210E48FFF7E8FD002204211C20FFF791
:102380005BFB01220A490948FFF7F2FD01210748DA
:10239000FFF721FE01210548FFF731FE0121034827
:1023A000FFF7AAFD00BF0837BD4680BD00440040CE
:1023B00004000C0080B586B000AF1748FFF758F84E
:1023C0003B1D1846FFF7E6F80823FB811023BB816D
:1023D000124BBB600023FB7401237B74104B7B60AA
:1023E0000023BB7400233B7401237B7500233B75E2
:1023F0003B1D19460848FFF7F4F801220221064860
:10240000FFF76AF8002204210B20FFF715FB00BF3D
:102410001837BD4680BD00BF440002403000002098
:102420000444004080B586B000AF1448FFF720F8A0
:102430003B1D1846FFF7AEF80823FB810023BB8144
:102440000F4BBB600023FB7401237B740D4B7B603F
:102450000023BB7400233B7401237B7500233B7571
:102460003B1D19460548FFF7BCF801210348FFF75B
:1024700050F800BF1837BD4680BD00BF580002406D
:10248000380000200444004080B582B000AF3B46D5
:1024900083E80300224B1B78C3F30003DBB2002B5D
:1024A00039D11F4A137843F0010313701D4B552295
:1024B0001A703B78DAB21B4B5A707B78DAB2194B40
:1024C0009A70BB78DAB2174BDA70FB78DAB2154B38
:1024D0001A713B79DAB2134B5A713B78DAB27B78D6
:1024E000DBB25340DAB2BB78DBB25340DAB2FB78EE
:1024F000DBB25340DAB23B79DBB25340DAB2094B7C
:102500009A71084BAA22DA71FFF754FF012106489D
:10251000FEF7FFFF00E000BF0837BD4680BD00BFEB
:1025200040000020300000204400024080B584B00C
:1025300000AF78602E4B1B78C3F34003DBB2002B57
:1025400048D02B4A13786FF341031370294B1B7843
:10255000552B2CD1274BDB79AA2B28D1254B5A7828
:10256000244B9B785340DAB2224BDB785340DAB2EB
:10257000204B1B795340DBB219461E4B5A791D4B39
:102580009B799A420CBF01230023DBB299420ED003
:10259000184B5B783B72174B9B787B72154BDB7843
:1025A000BB72144B1B79FB72124B5B793B7301219D
:1025B0001148FFF7C9FC01210F48FFF720FDFFF785
:1025C00031FF7B681A4607F10803186810601B7911
:1025D000137109E000233B727B681A4607F1080378
:1025E000186810601B79137178681037BD4680BD7C
:1025F00040000020380000200044004080B500AFBB
:10260000054A13786FF30003137000210348FEF7A7
:1026100080FF00BF80BD00BF40000020440002409A
:1026200080B500AF094A137843F00203137000210C
:102630000748FEF76EFF00210648FFF785FC0021E2
:102640000448FFF7DCFC00BF80BD00BF4000002055
:10265000580002400044004080B400AF094B1B68A2
:10266000084A43F080731360074B00221A60074B3F
:102670001B68064A43F00103136000BFBD4680BCDF
:10268000704700BFFCED00E0041000E0001000E027
:1026900080B400AF024B1B681846BD4680BC704733
:1026A000041000E080B500AF0420FFF7F3F9094BF8
:1026B0001B68094AA2FB03239B0C084A1360074BC3
:1026C0001B684FF47A7202FB03F3054A136000BFE4
:1026D00080BD00BF0400002083DE1B4344000020B7
:1026E0004800002080B485B000AF78600023FB6014
:1026F000154B1B6815497A6802FB03F34B60134BBB
:1027000000229A60114B1B68104A43F001031360CA
:102710000E4B1B68FB60FB6803F00103002B04D029
:10272000FB6803F48033002BF2D0084B1B68074A88
:1027300023F001031360054B00229A6000BF143799
:10274000BD4680BC704700BF4400002010E000E0A0
:1027500080B500AF40210248FFF75EF800BF80BDA2
:102760000014004880B500AF40210248FFF762F82E
:1027700000BF80BD0014004880B500AF8021024832
:10278000FFF74AF800BF80BD0014004880B500AFD5
:1027900080210248FFF74EF800BF80BD00140048BA
:1027A00080B500AF01214FF09040FFF71BF80346C2
:1027B000184680BD80B582B000AF4FF496624FF6E8
:1027C000FF711048FFF796F900233B710123BB719D
:1027D00001237B713B1D002219460A48FFF7D6F9F9
:1027E000012202210748FFF7E3FA00220021162008
:1027F000FFF722F901210348FFF768F900BF083706
:10280000BD4680BD0048014080B483B000AF0346A0
:102810000A46FB801346BB80BA88FB889A4209D3DC
:10282000BA88FB88D31A9BB21A46920013445B0005
:102830009BB20BE0FB88C3F57F43FF33BA88134498
:102840009BB21A46920013445B009BB218460C37A9
:10285000BD4680BC7047000080B500AF654B1B785B
:10286000DBB2032B00F2BA8001A252F823F000BFC2
:1028700081280008992800082B290008E52900086C
:1028800000215D48FFF74CF903469AB25B4B1A8072
:10289000584B01221A70AAE000215748FFF740F96F
:1028A00003469AB2564B1A80544B1B889BB2544A2B
:1028B000128892B211461846FFF7A6FF03461A4641
:1028C000504B1A804F4B1B889BB243F2D402934269
:1028D00014D94C4B1B889BB243F6A30293420DD8EC
:1028E000444B02221A70484B00221A60474B0022C8
:1028F0001A70434B1B889AB2404B1A80414B1B887D
:102900009BB242F60A0293426ED93E4B1B889BB2A1
:1029100042F6D972934267D83D4A137843F00203D6
:102920001370344B00221A705EE000213248FFF72A
:10293000F7F803469AB2324B1A80304B1B889BB291
:102940002F4A128892B211461846FFF75DFF0346E0
:102950001A462C4B1A802A4B1B889AB2274B1A8096
:10296000284B1B889BB240F29D3293420CD9254BD9
:102970001B889BB240F22C52934205D8224B1B6815
:102980005B00214A136017E01E4B1B889BB240F28C
:10299000DA7293420DD91B4B1B889BB240F6691229
:1029A000934206D8184B1B685B000133164A13602C
:1029B00002E0104B00221A70144B1B78DBB25A1C39
:1029C000D1B2124A11701E2B10D90A4B00221A7074
:1029D0000F4A137843F00103137007E0054B002200
:1029E0001A7004E000BF02E000BF00E000BF00BFBB
:1029F00080BD00BF4C00002000480140580000206E
:102A00005A0000205C000020540000205E000020DE
:102A10005000002080B400AF0C4B1B78DBB2002BC1
:102A20000BD00B4B1B785A1CD1B2094A1170642B86
:102A300007D9064B00221A7003E0054B00221A70DA
:102A400000E000BFBD4680BC704700BF4C000020C6
:102A50005F00002080B584B000AF0023FB7300232B
:102A6000BB7300237B7300233B730023BB60324B9B
:102A70001B78C3F30003DBB2002B06D12E4B1B786F
:102A8000C3F34003DBB2002B37D02B4A13786FF32C
:102A900000031370284A13786FF341031370274B18
:102AA0001B68184600F04CF8B860BB68FB73BB6845
:102AB0001B0ABB73BB681B0C7B73BB681B0E3B7391
:102AC000FA7BBB7BC3F1FF039A4216D17A7B3B7B37
:102AD000C3F1FF039A4210D13B7843F001033B70EE
:102AE000FB7B7B707B7BBB703B1D3A4612681146BB
:102AF00019800233120C1A700FE03B786FF3000359
:102B00003B7000237B700023BB703B1D3A4612686C
:102B1000114619800233120C1A7000233A7962F3BD
:102B200007037A7962F30F23BA7962F317431846E1
:102B30001037BD4680BD00BF50000020540000206B
:102B400080B483B000AF78607B685B0003F0AA328A
:102B50007B685B0803F0553313437B607B689B0005
:102B600003F0CC327B689B0803F0333313437B6064
:102B70007B681B0103F0F0327B681B0903F00F3305
:102B800013437B607B681B0203F0FF227B681B0AF8
:102B900003F0FF1313437B607B684FEA33437B6092
:102BA0007B6818460C37BD4680BC704780B485B042
:102BB00000AF0346FB800023FB6035E0FB88322B2F
:102BC0000AD91E4B1B681E4A322101FB03F35360D6
:102BD000FB88323BFB8008E0FB88184A12681849E2
:102BE00002FB03F34B600023FB80154B00229A602D
:102BF000134B1B68124A43F001031360104B1B6810
:102C0000FB60FB6803F00103002B04D0FB6803F4B6
:102C10008033002BF2D00A4B1B68094A23F00103D2
:102C20001360074B00229A60FB88002BC6D100BFBF
:102C300000BF1437BD4680BC704700BF6400002051
:102C400010E000E080B500AFFFF72CFDFFF704FDBA
:102C500001212548FEF718F901212448FEF714F94F
:102C600001212348FEF710F901212248FEF70CF953
:102C700001214FF4A010FEF707F901211E48FEF7CD
:102C800003F90320FEF7F9FE01214FF0904000F018
:102C90005FF8012204214FF0904000F077F8012204
:102CA00008214FF0904000F071F8052280214FF08C
:102CB000904000F06BF84FF480514FF0904000F0DE
:102CC00029F840210D4800F025F880210B4800F03C
:102CD00021F800F059F94FF4E130FFF72BFBFFF733
:102CE00069FD00BF80BD00BF110014001600140074
:102CF00004001C0011001C00120018000014004801
:102D000080B400AF024B1B681846BD4680BC7047BC
:102D10000400002080B584B000AF7860396007F10E
:102D200008031846FEF745FD0123FB7300233B73A0
:102D30000123BB733B68BB6000237B7307F108036F
:102D400019467868FEF7BCFC00BF1037BD4680BD51
:102D500080B584B000AF7860396007F10803184689
:102D6000FEF727FD0123FB7300233B730023BB7396
:102D70003B68BB6001237B7307F108031946786841
:102D8000FEF79EFC00BF1037BD4680BD80B588B001
:102D900000AFF860B9601346FB7107F114031846E1
:102DA000FEF707FD0123FB7600233B760223BB766B
:102DB000BB687B6100237B7607F114031946F86832
:102DC000FEF77EFCBB68B3F5004F00F0D080BB6817
:102DD000B3F5004F00F2CE80BB68B3F5804F00F032
:102DE000C380BB68B3F5804F00F2C480BB68B3F505
:102DF000005F00F0B680BB68B3F5005F00F2BA80F8
:102E0000BB68B3F5805F00F0A980BB68B3F5805F55
:102E100000F2B080BB68B3F5006F00F09C80BB6827
:102E2000B3F5006F00F2A680BB68B3F5806F00F0C9
:102E30008F80BB68B3F5806F00F29C80BB68B3F5F0
:102E4000007F00F08280BB68B3F5007F00F29280C3
:102E5000BB68B3F5807F75D0BB68B3F5807F00F2A7
:102E60008980BB68802B6AD0BB68802B00F282808F
:102E7000BB68202B4AD8BB68002B7BD0BB68013BCA
:102E80001F2B77D801A252F823F000BF152F00089E
:102E90001B2F0008752F0008212F0008752F000830
:102EA000752F0008752F0008272F0008752F0008C0
:102EB000752F0008752F0008752F0008752F000862
:102EC000752F0008752F00082D2F0008752F00089A
:102ED000752F0008752F0008752F0008752F000842
:102EE000752F0008752F0008752F0008752F000832
:102EF000752F0008752F0008752F0008752F000822
:102F0000752F0008752F0008332F0008BB68402B71
:102F100012D02FE00023FB772CE00123FB7729E080
:102F20000223FB7726E00323FB7723E00423FB77D0
:102F300020E00523FB771DE00623FB771AE007233B
:102F4000FB7717E00823FB7714E00923FB7711E0F8
:102F50000A23FB770EE00B23FB770BE00C23FB77B8
:102F600008E00D23FB7705E00E23FB7702E00F233B
:102F7000FB7700BFFA79FB7F1946F868FEF768FC1B
:102F800000BF2037BD4680BD80B500AF42F6DF628E
:102F900013210948FEF7AEFD012201210648FEF784
:102FA00007FF002200211120FEF746FD0121024803
:102FB000FEF78CFD00BF80BD0010004070B50D4DC8
:102FC0000D4C641BA4100026A64209D10B4D0C4CDD
:102FD00000F018F8641BA4100026A64205D170BDAD
:102FE00055F8043B98470136EEE755F8043B9847FF
:102FF0000136F2E75C3000085C3000085C30000805
:1030000060300008F8B500BFF8BC08BC9E467047A9
:0C301000F8B500BFF8BC08BC9E46704735
:10301C00000000000000000001020304060708097C
:10302C000000000001020304000000000102030480
:10303C0002040608020C081000000000000000004A
:08304C00010203040607080954
:08305400B8D6FF7F0100000067
:04305C00F500000873
:04306000D100000893
:083064000100000000127A00D7
:040000050800207D52
:00000001FF
